:020000040800F2
:1000000088200020C9170008710600087306000840
:10001000770600087B0600087F0600080000000045
:10002000000000000000000000000000830600083F
:100030008506000800000000870600088906000801
:10004000E3170008E3170008E3170008E3170008A8
:10005000E3170008E3170008E3170008E317000898
:10006000E3170008E3170008E3170008E317000888
:10007000E3170008E3170008E3170008E317000878
:10008000E3170008E3170008E3170008E317000868
:10009000E3170008E3170008E3170008E317000858
:1000A000E3170008E3170008E3170008E317000848
:1000B00015090008930A0008E50A0008E31700087C
:1000C000E3170008E3170008E3170008E317000828
:1000D000E3170008B51500081B170008E317000810
:1000E000E3170008E3170008E3170008E317000808
:1000F000E3170008E3170008E3170008E3170008F8
:10010000E3170008E3170008E3170008E3170008E7
:10011000E3170008E3170008E3170008E3170008D7
:10012000E3170008E3170008E3170008E3170008C7
:1001300000F002F800F042F80AA090E8000C8244B7
:100140008344AAF10107DA4501D100F037F8AFF294
:10015000090EBAE80F0013F0010F18BFFB1A43F0A5
:10016000010318475855000078550000103A24BF85
:1001700078C878C1FAD8520724BF30C830C144BF0C
:1001800004680C607047000000230024002500264E
:10019000103A28BF78C1FBD8520728BF30C148BFEA
:1001A0000B607047642904F0AB87732905F0A080C9
:1001B000002070471FB51FBD10B510BD05F045F9F3
:1001C0001146FFF7F7FF00F0ACF805F063F903B450
:1001D000FFF7F2FF03BC01F08BF9000010B500F04F
:1001E000D7FFF148007858B90120EF490870142171
:1001F000EE4803F0AFF940F2DC51ED4803F0AAF904
:1002000004F07BFDEB49088008460088002824DDC7
:100210004FF4006003F019FAE749898988420BD14D
:10022000012003F061FBE348008800283FDD04F073
:1002300072FC04F06AFD3AE040F6060003F005FAAD
:10024000DD498989884232D104F0F9FBD948008818
:1002500000282CDD04F059FD29E0D44803F08DF985
:1002600028B3D24803F07EF9002415E000BF04EB68
:100270008400D24901EBC000D1490860022003F09C
:1002800033FB00BFCB480088002803DD04F043FCAB
:1002900004F03BFD601CC4B2282CE7DBC44803F02B
:1002A0006CF920B1C24803F05DF904F01AFB10BDEF
:1002B00010B5C4A004F0BAFE0A2001F0E6F8FFF77A
:1002C0008DFFC7480178C7A004F0B0FE04F012FE0D
:1002D000642001F0DAF8FFF781FF642001F0D5F81F
:1002E000FFF77CFF642001F0D0F8FFF777FF642070
:1002F00001F0CBF8FFF772FF642001F0C6F8FFF7BA
:100300006DFF642001F0C1F8FFF768FF642001F081
:10031000BCF8FFF763FF642001F0B7F8FFF75EFF5A
:1003200010BD00BF00BF00BF01F072F801F0DAF8A5
:100330004FF4E13001F0EFF84FF4165001F077F987
:1003400000F094FA4FF47A7001F09FF840F27121B6
:10035000062000F00BFF4420AC4908704120487093
:10036000542088704120C870002008711620487100
:1003700008E00020A6490860A6A004F057FEC820A7
:1003800001F083F804F0A2FC0028F2D1A049091F73
:100390000860A5A004F04AFE04F0ACFD0020A749C7
:1003A000C1F8840140F2CF21322000F0F1FA41F689
:1003B0001F4140F2E24000F030FB0D20A049488090
:1003C0000A2088800020C880088148814FF47A7014
:1003D00001F05BF815E001209A490860FFF7FEFE86
:1003E0009948007840F02000974908707C480078D0
:1003F000012806DD00BFFFF75BFF79480078012880
:10040000F9DCE8E710B5914800788F49097888420F
:1004100078D0FFF7E3FE8C48007800F04000002819
:100420006CD08B480078442818D1894840784128FE
:1004300014D187488078542810D18548C078412845
:100440000CD1834880798249497940EA0120814969
:1004500008807F4800798049087049E07C4800782E
:1004600053281AD17A484078452816D178488078A0
:10047000542812D17648C07844280ED17448807927
:10048000764908707248C079754908800846018825
:100490007248007800F004FF2AE06D480078532885
:1004A00010D16B48407845280CD169488078542891
:1004B00008D16748C078542804D1654880796949D3
:1004C000087015E062480078532811D160484078E0
:1004D00045280DD15E488078542809D15C48C07801
:1004E000462805D15A4880795B490870FFF776FEA7
:1004F0005548007820F04000534908705248007871
:100500005249087010BD10B50020574908600FE02F
:10051000012000F0BAFFFFF761FEFFF75FFEFFF773
:100520005DFEFFF76FFF50480068401C4E490860B1
:100530004D480068B0F57A7FEADB10BD10B50020A9
:10054000494908600FE0012000F09FFFFFF746FED9
:10055000FFF744FEFFF742FEFFF754FF42480068F2
:10056000401C4149086040480068B0F5FA7FEADB6A
:1005700010BD10B500203D4908600FE0012000F0DB
:1005800084FFFFF72BFEFFF729FEFFF727FEFFF79B
:1005900039FF36480068401C344908603348006819
:1005A0009628EBDB10BD000038000020280000205A
:1005B00030000020A0000020880200208C120020C3
:1005C000A80000204920616D20696E2032746820E7
:1005D0007768696C6520726F7574650D0A0000009C
:1005E000C600002049606D207265636F6E6E6563A2
:1005F00074696E67202C20636F6E6E65637465642A
:10060000206973203A25640D0A000000A819002013
:10061000B0012242454E32384A363020496E697464
:10062000204572726F720000454E4332384A3630B0
:1006300020496E6974204F4B210A0D0000002142B1
:10064000EE0000201C000020C4000020200000203C
:100650000C1A00202200002014000020240000209A
:100660002600002001000020040000200C000020D3
:10067000704700BFFEE700BFFEE700BFFEE700BF18
:10068000FEE7704770477047704700000CB50020C8
:10069000019000906C48006840F480306A4908601E
:1006A00000BF6948006800F4003000900198401CC9
:1006B0000190009818B90198B0F5A06FF1D1624887
:1006C000006800F4003010B10120009001E000202B
:1006D00000900098012843D15C48006840F0100069
:1006E0005A4908600846006820F003000860084680
:1006F000006840F002000860534840685249486072
:100700000846406848600846406840F48060486099
:100710000846406820F47C1048600846406840F471
:10072000E81048600846006840F08070086000BF2C
:100730004548006800F000700028F9D04248406841
:1007400020F00300404948600846406840F002003D
:10075000486000BF3C48406800F00C000828F9D110
:100760000CBD10B5FFF792FF10BD10B536480068FC
:1007700040F00100344908600846406834490840A8
:100780003149486008460068324908402E490860EF
:100790000846006820F4802008600846406820F47D
:1007A000FE0048604FF41F008860FFF7DAFF4FF04B
:1007B00000602949086010BD10B50021002000220A
:1007C000214B5B6803F00C0121B1042906D00829F4
:1007D00028D107E0214B224C236027E01F4B204CFF
:1007E000236023E0184B5B6803F47010164B5B68C2
:1007F00003F48032022303EB904022B9194B4343A8
:10080000174C23600DE0104B5B6803F4003323B1F9
:10081000144B4343124C236003E0104B4343104CF2
:10082000236003E00D4B0E4C236000BF00BF064B5E
:100830005B68C3F303130C4CE15C094B1B68CB40B2
:10084000074C236010BD0000001002400020024051
:100850000000FFF8FFFFF6FE08ED00E000127A004E
:100860003C00002000093D004000002008B50121A7
:10087000102001F053FB4FF40060ADF80000102091
:100880008DF8030003208DF8020069461F4801F02F
:1008900089F84FF400611D4801F031F94FF48050A0
:1008A000ADF800006946194801F07CF84FF480511A
:1008B000164801F024F908BD70B505460E4600241F
:1008C0007EB900BF0BE01248006808B9012000E0C3
:1008D00000200F4908601E2000F0D7FD641CAC42C8
:1008E000F1DB012E11D100240DE00948001D006844
:1008F00008B9012000E000200549091D08601E20FC
:1009000000F0C3FD641CAC42EFDB70BD0010014081
:10091000AC01224210B50121880702F060FC20B131
:100920007A480068401C794908600121880702F074
:1009300067FC10BD7FB505460C460121084601F055
:10094000FAFAADF80850ADF804400020ADF80A00FE
:10095000ADF8060001A94FF0804001F01BFE012216
:100960004121880702F08DF90121880702F06EF914
:100970001C208DF8000001208DF8010002208DF868
:10098000020001208DF80300684600F042FF7FBDA1
:100990007FB505460C460121022001F0CCFAADF8E6
:1009A0000850ADF804400020ADF80A00ADF806008C
:1009B00001A9574801F0EEFD1D208DF8000003202D
:1009C0008DF801008DF8020001208DF803006846C3
:1009D00000F01FFF01214E4802F0FEFB7FBD10B565
:1009E00001214B4802F0F8FB0021494802F0C2FB0C
:1009F00001224121464802F044F90121444802F015
:100A000025F910BD10B500224121414802F039F905
:100A100000213F4802F01AF910BD7FB505460C468B
:100A20000121042001F087FAADF80850ADF8044028
:100A30000020ADF80A00ADF8060001A9354801F024
:100A4000A9FD01224121334802F01BF91E208DF837
:100A5000000002208DF8010003208DF80200012023
:100A60008DF80300684600F0D4FE0121294802F009
:100A7000EDF87FBD10B50021042001F05CFA0022E2
:100A80004121244802F0FDF80021224802F0DEF85E
:100A900010BD10B5002401211D4802F0A0FB00B3D9
:100AA00001211B4802F0ACFB1B48006808B901207B
:100AB00000E0002018490860012018490860FFF78D
:100AC000A1FF022016490870062405E0A01F154961
:100AD000085C15490855641C382CF7DB00201349C5
:100AE000087010BD10B501210A4802F078FB0128FA
:100AF00006D10121074802F083FB0DA004F096FA0D
:100B0000012011490870FFF7B5FF10BD500000200B
:100B10000004004000080040AC0122421C000020FC
:100B20000200002052010020A819002068000020C7
:100B30004920616D20696E20656E61626C6520548C
:100B4000696D6572340D0A001500002070B5054608
:100B5000002405E0601CC4B2C82C01DD002070BD7B
:100B60000221394802F09FFC0028F3D0294636487C
:100B700002F046FC002405E0601CC4B2C82C01DD74
:100B80000020ECE70121304802F08DFC0028F3D072
:100B90002D4802F037FCC0B2E1E700B587B0012173
:100BA000042001F0BBF90121080301F0B7F9E020AE
:100BB000ADF8180018208DF81B0003208DF81A00DE
:100BC00006A9224800F0EEFEE021204800F097FF41
:100BD0000020ADF804004FF48270ADF8060000204C
:100BE000ADF808000220ADF80A000120ADF80C00B5
:100BF0004002ADF80E003820ADF810000020ADF82E
:100C000012000720ADF8140001A90F4802F022FBE2
:100C100001210D4802F0C3FBFF20FFF797FF07B04B
:100C200000BD10B50446084800884FF6C77108405B
:100C300005490880084600882043088001210248B1
:100C400002F0ADFB10BD0000003001400008014083
:100C500000B587B00121080301F060F901211420DB
:100C600001F05CF93020ADF8040010208DF8070089
:100C700003208DF8060001A9FE4800F093FE302104
:100C8000FC4800F03CFF1020ADF8040001A9FA4830
:100C900000F088FE1021F84800F031FFE020ADF8A8
:100CA000040018208DF8070003208DF8060001A924
:100CB000F14800F077FEE021EF4800F020FF00202F
:100CC000ADF808004FF48270ADF80A000020ADF8CE
:100CD0000C00ADF80E00ADF810004FF40070ADF848
:100CE00012001820ADF814000020ADF816000720FF
:100CF000ADF8180002A9E14802F0ACFA0121DF4882
:100D000002F04DFBFF20FFF721FF07B000BD10B53B
:100D1000FFF79EFF0A2000F0B8FB40F2CF214FF40E
:100D20007A70FFF707FE0020D54908600A2000F01E
:100D3000ACFB0120D349C1F890010A2000F0A5FBCB
:100D400010BD70B505460C4600260020CE4908604F
:100D500004F01F0040EA05063046FFF7F7FEFF20CB
:100D6000FFF7F4FE064604F0800018B1FF20FFF7FD
:100D7000EDFE06460120C4490860304670BD2DE9ED
:100D8000F04104460D46164600270020BE49086083
:100D900005F01F0040EA04073846FFF7D7FE30464B
:100DA000FFF7D4FE0120B949C1F89001BDE8F081F8
:100DB00070B505460C460020B34908603A20FFF79D
:100DC000C5FE05E06D1E0020FFF7C0FE2070641C0C
:100DD000002DF7D1002020700120AB49086070BDC4
:100DE00070B504460D460020A74908607A20FFF739
:100DF000ADFE04E0641E2878FFF7A8FE6D1C002CF1
:100E0000F8D10120A049086070BD10B5044604F077
:100E100060009F49097888420ED003221F21A0203C
:100E2000FFF7ADFFC4F341121F218020FFF7A7FF9A
:100E300004F060009649087010BD10B504462046C5
:100E4000FFF7E3FF21460020FFF77BFF10BD70B5E1
:100E500004460D462046FFF7D8FF2A46214640208B
:100E6000FFF78DFF70BD70B505460C46002629467C
:100E7000D420FFF7ECFFE1B2D620FFF7E8FFC4F380
:100E80000721D720FFF7E3FF01E0701C86B2EA20BC
:100E9000FFF7D3FF00F0010018B140F6FF70864263
:100EA000F3DB70BD70B504460025FFF730FFFF226D
:100EB00000211046FFF763FF04E0681C85B20120A3
:100EC00000F0E3FA1D20FFF7B8FF00F0010010B9B1
:100ED000B5F5FA7FF1DBB5F5FA7F01DB012070BDD6
:100EE00000206C49086000210820FFF7B0FF0021B6
:100EF0000920FFF7ACFF00210C20FFF7A8FF00211D
:100F00000D20FFF7A4FF10210A20FFF7A0FF1A21F0
:100F10000B20FFF79CFF11210420FFF798FF1A21F7
:100F20000520FFF794FFFF210620FFF790FF1F2108
:100F30000720FFF78CFFB0213820FFF788FF3F2103
:100F40002820FFF784FF30212920FFF780FFF921B7
:100F50003020FFF77CFFF7213120FFF778FF0D21CC
:100F6000C020FFF774FF0021C120FFF770FF33227C
:100F7000C2218020FFF703FF1221C620FFF767FF81
:100F80000C21C720FFF763FF1521C420FFF75FFF87
:100F9000EE21CA20FFF75BFF0521CB20FFF757FFAB
:100FA0002178E420FFF753FF6178E520FFF74FFF3A
:100FB000A178E220FFF74BFFE178E320FFF747FF3E
:100FC0002179E020FFF743FF6179E120FFF73FFF40
:100FD0004FF480710020FFF746FF4FF4807110201E
:100FE000FFF741FF1F20FFF710FFC0221B218020C9
:100FF000FFF7C5FE04221F218020FFF7C0FEE4207A
:10100000FFF71BFF2178884201D1002067E701200C
:1010100065E710B57220FFF710FF10BD70B50446EC
:101020000D4611210220FFF712FF1A210320FFF7BE
:101030000EFF11202044C1B20620FFF708FF41F641
:1010400011202044C0F307210720FFF700FF0022F2
:1010500011467A20FFF793FE29462046FFF7C0FE8F
:1010600008221F218020FFF78AFE1C20FFF7E5FEE3
:1010700012E0000000100140000801400030014073
:1010800090012242000022429001214200002142B0
:10109000580000205C00002000F0020020B108226F
:1010A0001F21A020FFF76BFE70BD2DE9F041054622
:1010B0000F463920FFF7C1FE10B90020BDE8F081CE
:1010C000294801780020FFF7C2FE27480088C0F3B6
:1010D00007210120FFF7BBFE00213A20FFF731FE78
:1010E0002149086000213A20FFF72BFE1E490968BC
:1010F00041EA00201C49086000213A20FFF721FE48
:10110000044600213A20FFF71CFE44EA0024241F75
:1011100000213A20FFF715FE064600213A20FFF78E
:1011200010FE46EA0026681EA04200D26C1E06F0A1
:10113000800008B9002403E039462046FFF738FE56
:10114000094801780C20FFF782FE07480088C0F3A9
:1011500007210D20FFF77BFE40221E218020FFF794
:101160000EFE2046AAE700005C00002070B5054690
:101170000C4645F2555002F0CDF9284602F0CDF963
:10118000204602F0CDF902F0CEF902F0D1F970BD9F
:1011900010B502F0C8F910BD70B502460C46FF2527
:1011A000FF2309E012F8010B80EA05018C48405C3E
:1011B00080EA03058B48435C2000A4F10106B4B229
:1011C000F0D143EA052070BDF0B506460D46144641
:1011D00021462846FFF7E0FF07463812285529190F
:1011E0004F70601CC4B2601CC4B203E02878307039
:1011F000761C6D1C2000A4F10101CCB2F6D1F0BD2B
:101200002DE9F04188B007460E4614461D468DF87C
:10121000007003208DF8010020128DF80200E0B26A
:101220008DF8030028128DF80400E8B28DF805004F
:101230004FF00608424669463046FFF7C5FF0820D2
:101240006949087000F053FA082008B0BDE8F08141
:101250002DE9F04188B007460E4614461D468DF82C
:10126000007006208DF8010020128DF80200E0B217
:101270008DF8030028128DF80400E8B28DF80500FF
:101280004FF00608424669463046FFF79DFF0820AA
:101290005549087000F02BFA082008B0BDE8F0812D
:1012A00070B504460D462B46224650490220FFF7F2
:1012B000CFFF70BD2DE9F04780460C4691461E4693
:1012C000A01910F8027CA01910F8010C00EB0720FF
:1012D00087B2B01E81B22046FFF75EFF82465745B7
:1012E0001AD16078032802D0812811D10CE00025A2
:1012F00006E06019C07808EB09014855681CC5B2C2
:10130000A078A842F5DC06E04FF0FF30BDE8F0879A
:101310004FF0FF30FAE700BF0020F7E710B5344880
:10132000007802281BD133480078012817D100200B
:101330002F490870152300222E492F48FFF7BAFFC6
:10134000002406E02C48015D2C4AA01D1154601CAD
:10135000C4B2102CF6DB01202949087022E0244891
:10136000007802281ED12348007803281AD10020D3
:101370001F4908700B2310221E491F48FFF79AFFD0
:1013800010240AE01C48015D1C4AA01D11541A4893
:10139000407D1C490870601CC4B2162CF2DB012091
:1013A000174908700020184908701848007801286B
:1013B00008D1082300220D49FFF722FF032013491B
:1013C00008700CE011480078032808D1032300229C
:1013D00006491846FFF714FF01200C49087010BD9C
:1013E000A8540008A855000869000020B601002094
:1013F0000200002052010020C8000020A81900208F
:10140000C50000200000002068000020030000202C
:1014100010B56FF0040000F046FA2E4800682E491F
:10142000B0FBF1F02D4908700846007800EB400150
:10143000C1EBC0104FF6FF7101EAC00028490880D7
:1014400010BD0146254A12784A434FF0E0235A6105
:1014500000229A611A46126942F001021A6100BF25
:101460004FF0E022106900F001021AB100F480325E
:10147000002AF5D04FF0E022126922F001024FF06D
:10148000E0231A6100229A6170470146144A1288CB
:101490004A434FF0E0235A6100229A611A461269CA
:1014A00042F001021A6100BF4FF0E022106900F023
:1014B00001021AB100F48032002AF5D04FF0E02288
:1014C000126922F001024FF0E0231A6100229A61B2
:1014D000704700003C00002000127A0060000020ED
:1014E0006200002010B54FF4A06000F08DF910BD2F
:1014F000014600BF704770B504460D4600BF40214D
:10150000A64800F019FF0028F9D0E1B2A34800F086
:10151000A5FE204670BD10B586B00446012144F2F8
:10152000040000F0FBFC9D4800F05CFD4FF40070EF
:10153000ADF8140003208DF8160018208DF8170060
:1015400005A9974800F02EFA4FF48060ADF814001A
:1015500004208DF8170005A9914800F023FA0194A2
:101560000020ADF80800ADF80A00ADF80C00ADF8A9
:1015700010000C20ADF80E0001A9884800F075FDA0
:1015800025208DF8000003208DF801008DF8020061
:1015900001208DF80300684600F03BF9012240F27B
:1015A00025517E4800F0F9FD01217C4800F0E9FD5D
:1015B00006B010BD10B540F22551784800F0D2FEBB
:1015C00010B3764800F04EFEC4B27648008800F4AE
:1015D0000040C8B97348008800F4804060B10A2C0C
:1015E00003D000206F49088020E06E48008840F456
:1015F00000406C49088019E00D2C06D1694800882C
:1016000040F480406749088010E066480088C0F3D5
:101610000D0065490C5463480088401C61490880EE
:1016200008460088C72801DD0020088010BD10B5DD
:1016300086B004460121052000F070FC0121480419
:1016400000F079FC0420ADF8140003208DF816009A
:1016500018208DF8170005A9514800F0A3F90820BB
:10166000ADF8140004208DF8170005A94C4800F0CF
:1016700099F90220ADF8140010208DF8170003200E
:101680008DF8160005A9464800F08CF926208DF843
:10169000000002208DF801008DF8020001208DF875
:1016A0000300684600F0B5F801940020ADF808008A
:1016B000ADF80A00ADF80C00ADF810000C20ADF844
:1016C0000E0001A9394800F0D0FC012240F225515A
:1016D000364800F062FD012240F22661334800F0F6
:1016E0005CFD0121314800F04CFD06B010BD10B585
:1016F00001202F49086000202E4908702E480078EC
:10170000012804DD2C480078401E2B4908702B4826
:101710000178264800F0A2FD10BD10B540F2255119
:10172000224800F01FFE012813D1204800F09AFD46
:10173000C4B223480078322808DA224820490978C0
:1017400044541F480078401C1D490870FFF747F9B2
:1017500022E040F22661154800F004FE01281BD16A
:101760004021124800F0F5FD12480078124909782E
:1017700088420CDA0F480078401C0E4908700F4868
:101780000A461278815C094800F068FD04E00020F8
:10179000074908600A49087010BD00000038014080
:1017A000000801406C000020C001002000440040FF
:1017B000840121426A00002069000020B601002057
:1017C000680000205201002009488047094800476E
:1017D000FEE7FEE7FEE7FEE7FEE7FEE7FEE7FEE7E1
:1017E000FEE7FEE704480549054A064B704700003E
:1017F0006B07000831010008881A002088200020AB
:10180000881C0020881C002031490143314A1160A6
:10181000704770B5002100230F22C47804B32D4C0B
:10182000246804F4E064C4F5E064210AC1F104030F
:10183000CA40447804FA03F1847814402143090132
:10184000254C0678A155047804F01F050124AC400E
:1018500005786D11AD0005F1E025C5F8004109E0FE
:10186000047804F01F050124AC401C4D0678761165
:1018700045F8264070BD1A4A0A400243154B1B1F0B
:101880001A60704739B1134A121D12680243114B96
:101890001B1D1A6006E00F4A121D126882430D4B91
:1018A0001B1D1A607047042808D14FF0E021096918
:1018B00041F004014FF0E022116107E04FF0E02118
:1018C000096921F004014FF0E02211617047000026
:1018D0000000FA050CED00E000E400E080E100E02B
:1018E00080FFFF1F10B50446CC48844208D1012177
:1018F000042000F02DFB0021042000F029FB46E02D
:10190000C748844208D10121082000F021FB0021B2
:10191000082000F01DFB3AE0C248844208D10121B2
:10192000102000F015FB0021102000F011FB2EE02C
:10193000BD48844208D10121202000F009FB00218C
:10194000202000F005FB22E0B848844208D10121A4
:10195000402000F0FDFA0021402000F0F9FA16E0E6
:10196000B348844208D10121802000F0F1FA00211F
:10197000802000F0EDFA0AE0AE48844207D1012150
:10198000801500F0E5FA0021A01500F0E1FA10BD85
:1019900010B50121084600F0DBFA0021012000F01B
:1019A000D7FA10BD2DE9F04102460025002600209F
:1019B00000230024002791F803C00CF00F0591F8D4
:1019C00003C00CF0100CBCF1000F03D091F802C062
:1019D0004CEA050591F800C0BCF1000F31D0146845
:1019E00000202BE04FF0010C0CFA00F3B1F800C01E
:1019F0000CEA03069E4220D183004FF00F0C0CFA34
:101A000003F7BC4305FA03FC4CEA040491F803C055
:101A1000BCF1280F06D14FF0010C0CFA00FCC2F803
:101A200014C00AE091F803C0BCF1480F05D14FF093
:101A3000010C0CFA00FCC2F810C0401C0828D1D3DD
:101A40001460B1F800C0BCF1FF0F34DD5468002011
:101A50002EE000F1080C4FF0010808FA0CF3B1F881
:101A600000C00CEA03069E4221D183004FF00F0C08
:101A70000CFA03F7BC4305FA03FC4CEA040491F8A2
:101A800003C0BCF1280F05D100F1080C08FA0CF8CE
:101A9000C2F8148091F803C0BCF1480F07D100F1DF
:101AA000080C4FF0010808FA0CF8C2F81080401C2E
:101AB0000828CED35460BDE8F0814FF6FF71018055
:101AC000022181700421C170704702460020936892
:101AD0000B400BB1012000E00020704701468868F0
:101AE00080B2704702460020D3680B400BB1012042
:101AF00000E0002070470146C86880B2704701616D
:101B00007047416170470AB1016100E0416170476F
:101B1000C16070474FF480320A4382618161826103
:101B200082698269704702460020434B18684FF66D
:101B30008073184040EA021008433F4B186070471A
:101B40003E49C8617047F0B50A46002300240021D1
:101B5000002500F00046B6F1004F02D1364EF16983
:101B600001E0354E7168C0F3034583B200F44016BE
:101B7000B6F5401F08D121F070612F4E766826F02F
:101B800070662D4F7E6012E000F48016B6F5801F5F
:101B900006D1032606FA05F4A14341F0706106E080
:101BA000460D360103FA06F6B14341F0706122B1E9
:101BB000460D360103FA06F6314300F00046B6F151
:101BC000004F02D11C4EF16101E01B4E7160F0BD6F
:101BD00030B500228B071C0F0F2303FA04F2164BBB
:101BE00008338C1053F824309343134C08348D1071
:101BF00044F8253023468C1053F824308C07240FEA
:101C000000FA04F423430C4C08348D1044F82530BA
:101C100030BD0A49DC31086070470000000801400F
:101C2000000C014000100140001401400018014068
:101C3000001C014000200140000001400000204243
:101C4000DF48006840F00100DD4908600846406850
:101C5000DC490840DA49486008460068DA4908402B
:101C6000D74908600846006820F4802008600846CC
:101C7000406820F4FE0048604FF41F008860704701
:101C8000CF49096821F48031CD4A116011460968B5
:101C900021F480211160B0F5803F03D0B0F5802F92
:101CA0000ED106E0C649096841F48031C44A11608A
:101CB00007E0C349096841F4A021C14A116000E06E
:101CC00000BF00BF704710B501460022002300206E
:101CD0004A11012A02D1BA4C236806E0022A02D135
:101CE000B74C236A01E0B64C636A01F01F0201247D
:101CF00094401C400CB1012000E0002010BD38B51C
:101D0000002000900024002500BF3120FFF7DBFFFA
:101D100005460098401C00900098B0F5A06F01D0D7
:101D2000002DF2D03120FFF7CEFF08B1012400E0F2
:101D30000024204638BD01460020A14A106820F04A
:101D4000F80040EAC10010607047A0490860704781
:101D5000024600209A4B586820F47C1042EA0103A6
:101D60001843974B5860704798490866704701467A
:101D70000020934A506820F00300084350607047E9
:101D80008F48406800F00C007047014600208C4AE4
:101D9000506820F0F0000843506070470146002072
:101DA000874A506820F4E06008435060704701465D
:101DB0000020834A506820F4605040EAC10050601F
:101DC000704729B17E4A527A02437D4B5A7204E031
:101DD0007B4A527A82437A4B5A7270477B49D83198
:101DE0000860704701460020754A506820F4404062
:101DF0000843506070470021714A20321170704AC8
:101E000082F82010012802D004280AD104E0012120
:101E10006B4A2032117005E00521694A20321170A9
:101E200000E000BF00BF704769490860704764491F
:101E3000096A0143624A1162704765494439086082
:101E4000704730B500210022002400235C4D6D68EE
:101E500005F00C0121B1042905D0082923D105E0A2
:101E60005C4D056022E05B4D05601FE0544D6D68E0
:101E700005F47012524D6D6805F48034022505EBAF
:101E800092421CB9544D554305600BE04C4D6D68B2
:101E900005F400351DB1504D5543056002E04D4D30
:101EA0005543056002E04B4D056000BF00BF444D47
:101EB0006D6805F0F0010909484D6B5C0568DD406F
:101EC00045603F4D6D6805F4E061090A434D6B5C68
:101ED0004568DD4085603A4D6D6805F46051C90A7A
:101EE0003E4D6B5C4568DD40C560354D6D6805F461
:101EF0004041890B3A4D6B5CC568B5FBF3F5056154
:101F000030BD29B12E4A526902432D4B5A6104E07B
:101F10002B4A526982432A4B5A61704729B1284A99
:101F200092690243264B9A6104E0254A92698243F2
:101F3000234B9A61704729B1214AD2690243204B51
:101F4000DA6104E01E4AD26982431D4BDA617047B0
:101F500029B11B4AD2680243194BDA6004E0184ADF
:101F6000D2688243164BDA60704729B1144A12696D
:101F70000243134B1A6104E0114A12698243104B69
:101F80001A61704712494039086070470F49C864A8
:101F900070470B49C87170470948406A40F080702B
:101FA00007494862704701460020054A92680A4086
:101FB0000AB1012000E00020704701498872704793
:101FC000001002400000FFF8FFFFF6FE0000424252
:101FD0008004424200127A0000093D006E00002099
:101FE0007E00002010B50446FB48844209D101213F
:101FF0008803FFF7ADFF00214FF48040FFF7A8FFF3
:1020000032E0F648844209D101214804FFF7ADFFD0
:1020100000214FF40030FFF7A8FF25E0F04884428C
:1020200009D101218804FFF7A0FF00214FF480208F
:10203000FFF79BFF18E0EB48844209D10121C80457
:10204000FFF793FF00214FF40020FFF78EFF0BE016
:10205000E548844208D101210805FFF786FF0021E9
:102060004FF48010FFF781FF10BD2DE9F04786B0D7
:1020700005460E460024A24600BFA1460027B089AF
:1020800000B100BF2F462C8A4CF6FF700440F08848
:1020900004432C82AC894EF6F3100440B088318999
:1020A0000843718908430443AC81AC8A4FF6FF4072
:1020B0000440B0890443AC8201A8FFF7C2FEC648C1
:1020C000874202D1DDF810A001E0DDF80CA0A8895C
:1020D00000F4004040B10AEBCA0000EB0A1031687E
:1020E0004900B0FBF1F807E00AEBCA0000EB0A1068
:1020F00031688900B0FBF1F86420B8FBF0F004010E
:102100002009642101FB1089A88900F4004040B136
:10211000322000EBC900B0FBF1F000F007000443EF
:1021200008E0322000EB09106421B0FBF1F000F070
:102130000F0004432C8106B0BDE8F0874FF4165120
:10214000016000218180C18001810C214181002139
:102150008181704710B502460020108A4FF2FF03BC
:1021600018400B884C8823438C882343CC88234316
:102170001843108210BD0021018041808180C18000
:10218000704721B1828942F40052828104E0828941
:102190004DF6FF731A4082817047F0B50346002464
:1021A00000260025002040F66A17B94200D100BF82
:1021B0001846C1F3421401F01F06012707FA06F57D
:1021C000012C01D10C3004E0022C01D1103000E0D0
:1021D00014301AB107682F43076002E00768AF4365
:1021E0000760F0BD1AB1838A0B43838202E0838AC1
:1021F0008B4383827047028A4FF6F0731A40028243
:10220000028A0A430282704782894FF2FF731A40A2
:10221000828182890A438281704721B1828942F09A
:102220000202828104E082894FF6FD731A408281A6
:102230007047028A4FF6DF731A400282028A0A430D
:102240000282704721B1028A42F48042028204E095
:10225000028A4BF6FF731A4002827047C1F30802EC
:102260008280704701468888C0F3080070478189E2
:1022700041F0010181817047028BD2B20283028B4F
:1022800042EA012202837047028B02F47F420283FA
:10229000028B0A430283704721B1828A42F02002F6
:1022A000828204E0828A4FF6DF731A40828270478E
:1022B00021B1828A42F01002828204E0828A4FF6C3
:1022C000EF731A408282704721B1828A42F008027D
:1022D000828204E0828A4FF6F7731A408282704746
:1022E00021B1828942F40042828103E08289C2F3F3
:1022F0000E028281704721B1828A42F4006282829A
:1023000004E0828A4FF2FF731A4082827047828A09
:102310004FF6FB731A408282828A0A438282704798
:1023200021B1828A42F00202828204E0828A4FF660
:10233000FD731A408282704702460020B1F5007F8B
:1023400000D100BF13880B400BB1012000E000203A
:10235000704701F40072B2F5007F00D100BFCA439C
:102360000280704770B5024600240023002500203B
:1023700040F66A16B14200D100BFC1F3421501F028
:102380001F03012606FA03F3012D02D1968933407B
:1023900006E0022D02D1168A334001E0968A3340CE
:1023A0000C12012606FA04F41688344013B10CB15D
:1023B000012000E0002070BD10B50022002340F68F
:1023C0006A14A14200D100BF0A1201249440A3B2B2
:1023D000DC43048010BD0000003801400044004090
:1023E00000480040004C00400050004010B504463A
:1023F000FE48844208D10121C014FFF7A9FD002145
:10240000E014FFF7A5FDC4E0B4F1804F08D101212D
:102410000846FFF7AAFD00210120FFF7A6FDB8E05E
:10242000F348844208D101210220FFF79EFD0021DC
:102430000220FFF79AFDACE0EE48844208D101216A
:102440000420FFF792FD00210420FFF78EFDA0E09D
:10245000E948844208D101210820FFF786FD0021C8
:102460000820FFF782FD94E0E448844208D101216E
:102470001020FFF77AFD00211020FFF776FD88E09D
:10248000DF48844208D101212020FFF76EFD0021A2
:102490002020FFF76AFD7CE0DA48844208D1012160
:1024A0004014FFF755FD00216014FFF751FD70E067
:1024B000D548844209D10121C804FFF749FD002114
:1024C0004FF40020FFF744FD63E0D048844209D177
:1024D00001210805FFF73CFD00214FF48010FFF7B4
:1024E00037FD56E0CA48844209D101214805FFF76B
:1024F0002FFD00214FF40010FFF72AFD49E0C548E9
:10250000844208D101214020FFF72FFD0021402007
:10251000FFF72BFD3DE0C048844208D10121802017
:10252000FFF723FD00218020FFF71FFD31E0BB48AE
:10253000844208D101218015FFF717FD0021A01565
:10254000FFF713FD25E0B648844209D101210804B4
:10255000FFF7FEFC00214FF48030FFF7F9FC18E094
:10256000B048844209D101214804FFF7F1FC002161
:102570004FF40030FFF7ECFC0BE0AB48844208D18D
:1025800001218804FFF7E4FC00214FF48020FFF7CD
:10259000DFFC10BD00220288944B98420ED0994B6C
:1025A00098420BD0B0F1804F08D0914B984205D0A3
:1025B000904B984202D0904B984204D14FF68F73C3
:1025C0001A404B881A438D4B984207D08C4B984247
:1025D00004D04FF6FF431A40CB881A4302808B8801
:1025E00083850B880385814B98420BD0854B98429D
:1025F00008D08B4B984205D08A4B984202D08A4B28
:10260000984201D10B7A038601238382704770B50B
:10261000002400220023058C4FF6FE763540058409
:10262000028C8388048B4FF68F752C40B51E2C408E
:102630000D882C43751E2A400D892A434D882A4354
:102640006A4DA8420BD06F4DA84208D0744DA842E5
:1026500005D0744DA84202D0734DA84213D14FF655
:10266000F7752A404D892A434FF6FB752A408D881D
:102670002A434FF6FF652B404FF6FF552B408D89BF
:102680002B43CD892B4383800483CD8885860284A8
:1026900070BD70B5002400220023058C4FF6EF7644
:1026A00035400584028C8388048B48F6FF752C40E6
:1026B0004FF6FF452C400D884FF6FF7606EA0525BC
:1026C0002C434FF6DF752A400D8906EA05152A438B
:1026D0004D8806EA05152A43444DA84202D0494DCB
:1026E000A8421DD14FF67F752A404D894FF6FF76DF
:1026F00006EA05152A434FF6BF752A408D8806EA7B
:1027000005152A434FF6FF352B404FF2FF752B403E
:102710008D8906EA85052B43CD8906EA85052B437D
:1027200083800483CD880587028470BD70B5002442
:1027300000220023058C4FF6FF6635400584028C8D
:102740008388848B4FF68F752C404FF6FC752C4098
:102750000D882C434FF6FF552A400D894FF6FF7622
:1027600006EA05252A434D8806EA05252A431F4D1A
:10277000A84202D0234DA8421DD14FF2FF752A4036
:102780004D894FF6FF7606EA05252A434FF6FF35B9
:102790002A408D8806EA05252A434EF6FF752B4010
:1027A0004DF6FF752B408D8906EA05152B43CD8923
:1027B00006EA05152B4383808483CD8885870284B0
:1027C00070BD70B5002200230024058C4EF6FF7604
:1027D00035400584038C8488828B48F6FF752A4037
:1027E0004FF6FF452A400D8820E00000002C0140F4
:1027F0000004004000080040000C004000100040B1
:102800000014004000340140004C014000500140E1
:102810000054014000180040001C0040002000400F
:102820000040014000440140004801404FF6FF765F
:1028300006EA05252A434DF6FF752B400D8906EA69
:1028400005352B434D8806EA05352B43FA4DA84242
:1028500002D0FA4DA84208D14BF6FF752C408D8965
:102860004FF6FF7606EA85152C4384808283CD8857
:10287000A0F84050038470BD828B4FF2FF331A40A2
:102880008283828B4FF6FF7303EA01231A4382830C
:102890007047F0B50C461546002200210026078C33
:1028A0004EF6FF7C07EA0C070784828B018C4FF6FB
:1028B000FF7707EA043640F6FF473A404FF6FF77C6
:1028C00007EA05273A434FF6FF7707EA03373A430B
:1028D000D94FB8420ED0D94FB8420BD0B0F1804F8B
:1028E00008D0D74FB84205D0D64FB84202D0D64F05
:1028F000B84206D14DF6FF77394046F48057394348
:1029000005E047F6FF57394044F480573943828346
:102910000184F0BD828B4FF6F3731A408283828B61
:102920000A4382837047F0B50C4615460022002109
:102930000026078C4FF6FF6C07EA0C070784828B92
:10294000018C4FF6FF7707EA04264FF60C773A40E2
:102950004FF6FF7707EA03172F433A43B64FB842C3
:102960000ED0B64FB8420BD0B0F1804F08D0B44F64
:10297000B84205D0B34FB84202D0B34FB84206D1E7
:102980004FF6FF57394046F48077394305E04FF260
:10299000FF57394044F48077394382830184F0BD86
:1029A000028B4FF2FF331A400283028B4FF6FF7304
:1029B00003EA01231A4302837047F0B50C4615461B
:1029C000002200210026078C4FF6EF7C07EA0C0757
:1029D0000784028B018C4FF6FF7707EA041640F656
:1029E000FF473A404FF6FF7707EA03373A434FF67F
:1029F000FF7707EA05273A438F4FB8420ED08F4F33
:102A0000B8420BD0B0F1804F08D08D4FB84205D0FE
:102A10008C4FB84202D08C4FB84206D14FF6DF77C8
:102A2000394046F01007394305E04FF65F773940EB
:102A300044F01007394302830184F0BD028B4FF646
:102A4000F3731A400283028B0A4302837047F0B586
:102A50000C46154600220021068C4FF6FE773E40BC
:102A60000684028B018C4FF60C7632407E1C06EAFF
:102A700003162E433243704EB0420ED06F4EB0421A
:102A80000BD0B0F1804F08D06D4EB04205D06D4EE6
:102A9000B04202D06C4EB04206D14FF6FD763140C6
:102AA00044F00106314305E04FF6F576314044F03D
:102AB0000106314302830184F0BD70B505460C4622
:102AC0005D4885420ED05D4885420BD0B5F1804F00
:102AD00008D05B48854205D05A48854202D05A4802
:102AE000854200D100E000BF208850B92389A28828
:102AF00061882846FFF7ABFFE1882846FFF79EFF75
:102B000025E0208804280AD12389A28861882846E4
:102B1000FFF753FFE1882846FFF742FF17E02088C0
:102B200008280AD12389A28861882846FFF7FBFE7E
:102B3000E1882846FFF7EEFE09E02389A288618834
:102B40002846FFF7A6FEE1882846FFF795FE70BDF0
:102B50002DE9F04105460C4600260127608808B99A
:102B6000022600E00026A088012801D1022700E00B
:102B700001272088A0B92389A28861882846FFF709
:102B800066FFE1882846FFF759FF23893A46314618
:102B90002846FFF712FFE1882846FFF701FF13E000
:102BA0002389A28861882846FFF707FFE188284625
:102BB000FFF7F6FE23893A4631462846FFF747FFDE
:102BC000E1882846FFF73AFFBDE8F0810A884B8884
:102BD0001A438B881A43CB881A430B891A434B89B3
:102BE0001A438B891A43A0F8442070474FF6FF71AF
:102BF000818000210180C1804180017270470021E5
:102C0000018041808180C180018141818181C181B8
:102C10007047002101804180012181800021C18015
:102C2000018170470021018041808180C180018144
:102C30004181818170470000002C01400034014037
:102C40000004004000080040000C004021B1028850
:102C500042F00102028004E002884FF6FE731A403F
:102C60000280704731B1B0F8442042F40042A0F82D
:102C7000442005E0B0F84420C2F30E02A0F844203E
:102C800070471AB183890B43838102E083898B43A8
:102C9000838170478182704741EA0203A0F848307F
:102CA00070471AB183890B43838102E083898B4388
:102CB0008381704701894FF6F87211400181704796
:102CC0000A46002101894FF68F7319401143018193
:102CD000704730B504460D4629462046FFF7F0FF01
:102CE000208940F00700208130BD2DE9F0410446E5
:102CF0000D4616461F46602D06D13B460122314641
:102D00002046FFF75AFE05E03B46012231462046A9
:102D1000FFF79DFE29462046FFF7D2FF208940F0AD
:102D200007002081BDE8F08130B50C460021018903
:102D3000C9B24FF6FF7505EA03251543254329431C
:102D4000018130BD2DE9F04105460E4617469846F3
:102D5000002443463A4631462846FFF7E5FF2C89D2
:102D60004FF6F870044044F007044FF68F700440AB
:102D700044F070042C81BDE8F081F0B504460D46A6
:102D800016461F463B46324629462046FFF7CCFFF3
:102D9000208940F480402081F0BD01858282704707
:102DA0000A46002101884FF68F73194011430180B4
:102DB0007047F0B50C4615461E4600210022002340
:102DC0000189028B038C4FF6F877394021434FF687
:102DD000FC473A4040F201173A434FF6DD773B405B
:102DE0004FF6FF7707EA06172F433B430181028323
:102DF0000384F0BD0A460021018B4FF68F73194002
:102E00001143018370470A460021018B48F6FF7386
:102E100019404FF6FF7303EA0223194301837047F9
:102E20000A460021818B4FF68F731940114381832D
:102E300070470A460021818B48F6FF7319404FF610
:102E4000FF7303EA022319438183704721B102888B
:102E500042F08002028004E002884FF67F731A403D
:102E60000280704721B1828842F00402828004E02F
:102E700082884FF6FB731A408280704721B18288A6
:102E800042F00802828004E082884FF6F7731A400D
:102E90008280704721B1828842F00102828004E082
:102EA00082884FF6FE731A40828070470A460021DE
:102EB000018B4FF6F77319401143018370470A469F
:102EC0000021018B4FF2FF7319404FF6FF7303EAA5
:102ED00002231943018370470A460021818B4FF674
:102EE000F77319401143818370470A460021818B93
:102EF0004FF2FF7319404FF6FF7303EA02231943A1
:102F0000818370470A460021018B4FF6FB731940FD
:102F10001143018370470A460021018B4FF6FF33AE
:102F200019404FF6FF7303EA0223194301837047E8
:102F30000A460021818B4FF6FB73194011438183B0
:102F400070470A460021818B4FF6FF3319404FF638
:102F5000FF7303EA02231943818370470A46002165
:102F6000018B4FF67F7319401143018370470A4666
:102F70000021018BC1F30E014FF6FF7303EA022318
:102F80001943018370470A460021818B4FF67F73F6
:102F900019401143818370470A460021818BC1F398
:102FA0000E014FF6FF7303EA022319438183704732
:102FB0000A460021018C4FF6FD731940114301842C
:102FC00070470A460021018C4FF6F77319401143F0
:102FD000018470470A460021018C4FF6DF731940C7
:102FE0004FF6FF7303EA02131943018470470A4640
:102FF0000021018C4FF67F7319404FF6FF7303EAEF
:1030000002131943018470470A460021018C4FF6D0
:10301000FF5319404FF6FF7303EA0223194301845B
:1030200070470A460021018C4FF2FF7319404FF69A
:10303000FF7303EA02231943018470470A46002103
:10304000018C4DF6FF7319404FF6FF7303EA02330C
:1030500019430184704730B5002301248C40A3B28A
:10306000048C9C430484048C02FA01F5ADB22C4319
:10307000048430BD30B5002304248C40A3B2048CFA
:103080009C430484048C02FA01F5ADB22C43048401
:1030900030BD70B5034600200024184618300125C5
:1030A0008D40ACB21D8CA5431D8409B1082909D1FE
:1030B00000EB6100056825F07005056005681543A3
:1030C00005600EE00D1FC5F34E052844056825F484
:1030D000E045056005684FF6FF7606EA02263543AF
:1030E000056070BD21B1028842F00202028004E056
:1030F00002884FF6FD731A400280704721B10288A2
:1031000042F00402028004E002884FF6FB731A408A
:103110000280704721B1828842F08002828004E000
:1031200082884FF67F731A408280704702884FF67C
:10313000F7731A40028002880A430280704782882F
:103140004FF68F731A40828082880A4382807047CC
:1031500002894FF6F8731A40028102890A430281FC
:10316000704702894FF67F731A40028102890A4331
:1031700002817047818470478185704781867047DE
:103180000187704781877047A0F840107047028818
:103190004FF6FF431A40028002880A4302807047BC
:1031A0000146888E70470146088F70470146888F18
:1031B00070470146B1F8400070470146888C70475F
:1031C0000146088D704702460020138A0B400BB160
:1031D000012000E000207047CA430282704730B5EA
:1031E0000246002000230024158A05EA0103958980
:1031F00005EA010413B10CB1012000E0002030BD4C
:10320000CA4302827047000010B50446BE4884429B
:1032100008D101218014FEF79BFE0021A014FEF7C7
:1032200097FE16E0B948844208D101210014FEF748
:103230009CFE00212014FEF798FE0AE0B448844268
:1032400007D10121C013FEF790FE0021E013FEF725
:103250008CFE10BD10B50022028802F441520B888A
:103260004C8823438C882343CC8823430C892343F5
:103270004C8923438C892343CC8923431A430280FE
:10328000838B4FF2FF74234083830B8A038210BD2C
:103290002DE9F04F85B005460C464FF00009022796
:1032A0004FF000084FF0010B0026B246A88B4FF2FA
:1032B00040010840A88302202884B5F81C90A0682B
:1032C000022801D100BF38E0A08810B94FF0010BEF
:1032D00001E04FF0020B8D48854200D100E000BFB5
:1032E0006846FEF7AEFDDDF800A0E088B0F5007F8F
:1032F0000AD14FEA1A2000EB80004000A168B0FB21
:10330000F1F0401D86B20BE04FEA4B10BAFBF0F033
:1033100000EB80004000A168B0FBF1F0401D86B2D8
:103320000A20B6FBF0F606F00108A6EB0800C0F391
:103330004F074FF6FF7000EA0828022F01DBFF2F2E
:1033400002DD02274FF00008E08840EA0800384319
:103350002884A088A18908436188084321880843FC
:1033600040F4006040EA0909A5F81C9005B0BDE8EA
:10337000F08F0021018041808180C18001814181E5
:103380008181C18107210182704700210180418034
:103390008180C1800221816000218181704721B13B
:1033A000028842F04002028004E002884FF6BF73B8
:1033B0001A400280704721B1828B42F4806282837E
:1033C00004E0828B4FF6FF331A408283704730B59A
:1033D000002400230C110125A540ABB21AB1858849
:1033E0001D43858002E085889D43858030BD1AB1EC
:1033F00083880B43838002E083888B4383807047FC
:10340000818170470146888970474FF6FF6291427B
:1034100004D0028842F48072028004E002884FF6F1
:10342000FF631A400280704721B1828842F0040293
:10343000828004E082884FF6FB731A4082807047D6
:1034400002884FF2FF731A40028002880A4302800A
:103450007047018841F480510180704721B1028892
:1034600042F40052028004E002884DF6FF731A40D5
:103470000280704702460020012901D0108B00E035
:10348000908A70470146088A7047B1F5804F04D191
:10349000028842F48042028004E002884BF6FF7307
:1034A0001A40028070470246002013890B400BB17E
:1034B000012000E000207047CA4302817047F0B548
:1034C0000246002000240023002501F00F070126FA
:1034D000BE40B4B20B1101269E40B3B2968806EAF4
:1034E00003051689264016B10DB1012000E0002029
:1034F000F0BD10B5002201F00F040123A3409AB2E1
:10350000D343038110BD000000300140003800406B
:10351000003C00400E49086070470D494860704704
:103520000B49886070474AF6AA200949086070472D
:103530004CF6CC4006490860704701460020044A1A
:10354000D2680A400AB1012000E000207047000064
:103550000030004070B504460D46656001F0B0FBD8
:10356000206070BDD0E9001211440160704710B5B1
:10357000044601F0A5FB206010BD10B5044601F023
:103580009FFB2168401A6168884201DB012010BD61
:103590000020FCE7F84908807047C2780A44F74BDE
:1035A000DA70827802EB21229A7042785A7002789F
:1035B0001A701A469278B2EB212F0ADA1A4652781C
:1035C000521C5A701A4652781AB91A461278521C6E
:1035D0001A70EA4AD278CBB29A4212DAE74A927863
:1035E000521CE64B9A701A46927852B91A46527893
:1035F000521C5A701A4652781AB91A461278521C3E
:103600001A707047F0B50B46144619461E19751E00
:103610000BE04E780F7806EB0726B2B28618B0B2F0
:10362000904201DA461CB0B2891CA942F1D3A942EA
:103630000AD10E78002707EB0626B2B28618B0B280
:10364000904201DA461CB0B2F0BD0146080240EAE1
:10365000212080B2704770B504460D462A462146A7
:103660000020FFF7CFFF0646FFF7EFFF70BD10B554
:103670001422C3490020FFF7C5FF044614B94FF6D2
:10368000FF7010BD2046FFF7E0FFFAE770B5044673
:10369000BB480E38417C007C01EB0020143885B219
:1036A000281986B20822B6490C313046FFF7AAFF26
:1036B00006462A46B24914313046FFF7A3FF0646B4
:1036C00016B94FF6FF7070BD3046FFF7BEFFFAE740
:1036D00010B50620FFF7DAFF10BD10B51120FFF777
:1036E000D5FF10BD0020A74908700AE00020A649B8
:1036F000A44A127821F81200A2480078401CA1497F
:103700000870A04800782828F0DB00209D49087048
:103710000DE000209B49097801EB81019B4A02EBF7
:10372000C101487697480078401C96490870954832
:1037300000782828EDDB4FF48060954908807047B9
:1037400030B504460D4600BF91480088401C9049A2
:10375000088008460088B0F5FA4F02DB4FF480502D
:10376000088000208749087015E08648007800EB43
:103770008000864901EBC002507E38B18448008841
:10378000FFF763FF9188884200D1DDE77D4800782C
:10379000401C7C4908707B4800782828E5DB002223
:1037A00000207849087018E07648007800EB800027
:1037B000764901EBC003587E08B91A4611E0587EDD
:1037C000072805D11AB1987E917E884200DD1A46FD
:1037D0006C480078401C6B4908706A4800782828BB
:1037E000E2DB00BF0AB9002030BD022050766948F4
:1037F0000078107367484178517381789173C1786C
:10380000D17340F6CA70508290820120108200204D
:10381000D07601209076032010760020907510203D
:10382000D0755B480088FFF710FF9080D58000BFFF
:10383000208810806088508000BF1046D4E70021A7
:10384000504A117012E050494E4A127831F8121065
:10385000814206D100214C4A4A4B1B7822F81310B2
:10386000704748490978491C464A1170454909780A
:103870002829E8DB00BFF3E70021424A117010E07D
:103880004149404A127831F8121029B93E493D4A5F
:10389000127821F8120070473A490978491C394AD0
:1038A0001170384909782829EADB00BFF3E710B521
:1038B00004462146384800680830FFF76EFE2F485E
:1038C00000783549096808722C4841783248006808
:1038D00041722A4881783048006881722748C1784F
:1038E0002D480068C17210BD70B505462A480468AD
:1038F000234828302949086029490860032D0ED142
:10390000607E00F00F00032807D1208A28B9082024
:103910002449087001F008FAEFE300F0A1BF022D7E
:103920007DD11C48C078401CC0B21A49C87078B913
:1039300008468078401CC0B2887048B90846407874
:10394000401CC0B2487018B908460078401C087086
:1039500000201549088015490880607E072802D09C
:10396000607E052824D1A07E401CA076A07EF02891
:103970007BD10020607678E0AC000020B40000200D
:1039800096020020B8000020CC1800208C120020E5
:10399000B2000020AE000020A80000209800002007
:1039A0009C000020A4000020A0000020A200002015
:1039B000607E002859D0208A00284BD0A17E481E66
:1039C000A076002951D1E07E082808D0607E022828
:1039D00002D0607E01280ED1E07E05280BD10020A8
:1039E00060768020FE49087001F09EF91421FD48A0
:1039F00080F82F10FEE3E07E042801DD042000E0C3
:103A0000E07E03218140A176E07E401CE076F6480E
:103A1000C08C401C81B2F448C184607E00E025E087
:103A200000F00F00092820D2DFE800F01F05060B88
:103A3000111F121F130031E30021EA4880F82F10F4
:103A400031E30420E649087001F06EF9FDE300BFA0
:103A500000BFFBE3607E00F00F00032805D10820C3
:103A6000DF49087001F060F956E756E7DE48408804
:103A7000401CDD494880DB48807B45280BD0084648
:103A80000088401C08800846C088401CC880D7A019
:103A900001F067F941E7D348417C007C01EB00204D
:103AA000DC490988884207DCCE48417C007C01EB78
:103AB0000020D849088003E0D7A001F052F92CE794
:103AC000C848007D00F03F0010B9C648407D60B195
:103AD000C5480088401CC449088008468089401CAD
:103AE0008881D9A001F03DF917E7DD480088DD495C
:103AF0000988884205D1DA484088DA4949888842ED
:103B000011D0B848C08BD6490988884205D1B5483C
:103B1000008CD3494988884205D0B3480088401CAE
:103B2000B1490880F9E6FFF7A2FD4FF6FF71884220
:103B30000CD0AD480088401CAB4908800846C089BD
:103B4000401CC881C8A001F00CF9E6E6A548C07D7C
:103B5000062800D158E0A348C07D01280CD0A24817
:103B60000088401CA04908800846008A401C088242
:103B7000C2A001F0F6F8D0E69B48808A401C81B2D2
:103B800099488182974890F8220008280ED09648DC
:103B9000408A401C944948820846008B401C81B2F0
:103BA00091480183BCA001F0DCF8B6E600218D4805
:103BB00080F82210808C4FF6F771884206DB894826
:103BC000808C093081B28748818405E08548808CEB
:103BD000083081B28348818400BF8248418BC18311
:103BE000818B018400BF00BF9D4801887D484183CF
:103BF0009B4841887B48818300BF7B48C08A401C2A
:103C000081B27948C182FCE37748808B401C81B245
:103C100075488183FFF75CFD4FF6FF7188420ED037
:103C20007148408B401C704948830846008C401CFA
:103C300081B26D4801849EA001F093F86DE6A14C1D
:103C400017E0607EA0B16748808CA18888420FD1C0
:103C50006448408CE18888420AD16248408B2188C0
:103C6000884205D15F48808B6188884200D136E266
:103C7000283495488442E4D95A4890F82F0000F03F
:103C80003F00022800D021E05648808C8F490880F0
:103C900000208F4908700EE08E488D49097830F871
:103CA00011008A490988884200D117E188480078C4
:103CB000401C87490870864800782828ECDB4A4871
:103CC000408D401C81B24848418500BF454890F86E
:103CD0002F0000F0040000B11FE64348808C401C18
:103CE00081B24148818414213E4880F82F10282059
:103CF0004849088050213B4880F82E1090F8290050
:103D000073490870374890F82D1080F829107048D2
:103D10000178344880F82D1090F828006C4908701C
:103D2000304890F82C1080F82810694801782D4808
:103D300080F82C1090F8270065490870294890F801
:103D40002B1080F8271062480178264880F82B1045
:103D500090F826005E490870224890F82A1080F8F2
:103D600026105B4801781F4880F82A1090F82D0033
:103D7000401CC1B21B4880F82D10B1B990F82C003E
:103D8000401CC1B2174880F82C1071B990F82B0074
:103D9000401CC1B2134880F82B1031B990F82A00AA
:103DA000401CC1B20F4880F82A100E48408C474989
:103DB00008800C48818C41844448018809488184EA
:103DC00000BF418BC183818B018400BF00BF2448A9
:103DD00001880448418322484188024881837BE06E
:103DE000A4000020880200201C19002069703A20DD
:103DF000696E76616C69642076657273696F6E2096
:103E00006F7220686561646572206C656E677468A6
:103E10002E000000A000002069703A207061636BE2
:103E200065742073686F72746572207468616E20A7
:103E30007265706F7274656420696E2049502068E5
:103E400065616465722E000069703A206672616770
:103E50006D656E742064726F707065642E00000072
:103E600084000020A856000869703A20626164202E
:103E7000636865636B73756D2E00000069703A208E
:103E80006E65697468657220746370206E6F72204D
:103E900069636D702E00000069636D703A206E6F6B
:103EA000742069636D70206563686F2E00000000E8
:103EB0007463703A2062616420636865636B737534
:103EC0006D2E00008C120020A4180020BA000020E3
:103ED000B8000020CC18002000BFFDE30024002023
:103EE000FA49087030E0F948007800EB8000F849A2
:103EF00001EBC000407E30B9F448007800EB800050
:103F000001EBC00424E0F148007800EB8000F049A8
:103F100001EBC000407E072811D14CB1EB4800787E
:103F200000EB800001EBC000807EA17E884206DDB0
:103F3000E648007800EB8000E54901EBC004E34867
:103F40000078401CE1490870E04800782828CADB66
:103F500000BF4CB9DF48008D401C81B2DD480185AF
:103F6000DDA000F0FEFED8E4E44804600320A07663
:103F700020760020A0750420E0750020E076E0485F
:103F8000808CA080DE48408CE08000BFDC48408B05
:103F90002080DB48808B608000BF01206076D9489C
:103FA00000782073D748417861738178A173C17814
:103FB000E17301202082D24890F82910E17290F834
:103FC0002810A17290F82710617290F826002072D4
:103FD0000120FFF76CFCCA4890F82E0000F0F000BA
:103FE00050285ADD0020B94908704AE0B7480078E7
:103FF0003630C349085CC44908700846007800B9E7
:104000004AE0C1480078012805D1B0480078401C3A
:10401000AE49087035E0BC480078022820D1AB4892
:1040200000783730B649085C042819D1A7480078D1
:104030003930095CA54800783830B14A105C41EA53
:104040000020B24908800846008840F6CA718842BC
:1040500001DD084601E0AD4800886082A0821BE0D7
:104060009A4800783730A649085C00B914E09748B0
:1040700000783730A249085C94490978084493498C
:1040800008709F4890F82E000521C1EB20108F4941
:104090000978B1EB800FA9DB00BF00BF1021984861
:1040A00080F82F1000BF964890F82F0040F00201D2
:1040B000934880F82F10022180F83610042180F8F0
:1040C00037100F2180F83810CA2180F839102C20C1
:1040D0008F49088060218A4880F82E1022E38748A3
:1040E000046000208B490870854890F82F0000F08C
:1040F000040060B10020607600E030E286A000F0AD
:1041000030FE20208349087000F00EFEA8E37C48B2
:1041100090F82E00001180006C4908707C480088DF
:104120000978401A14387A490880607E00F00F0040
:10413000022806D1724890F82F0000F03F001228A4
:1041400022D073480088002805DC6D4890F82F00C5
:1041500000F00300C0B16A4890F82600217A884236
:1041600011D1674890F82710607A81420BD16448DA
:1041700090F82810A07A814205D1614890F8291062
:10418000E07A814200D0BFE25D4890F82F0000F055
:10419000100080B3208A70B3218A04F10C00FFF76D
:1041A000FCF9574890F82A0065490978884246D1B9
:1041B000534890F82B006249497888423FD15048D3
:1041C00090F82C005E498978884238D14C4890F8A4
:1041D0002D005B49C978884231D159480078207355
:1041E0005748417861738178A173C178E173E07EAB
:1041F000F0B901E08DE222E0217EA27E891A48B268
:10420000A17DA0EBE10148B2A17D0144A175002888
:1042100001DA414248B2E17DA0EBA10148B2E17D63
:104220000144E175E17DA27D01EBE201217600BF51
:10423000012038490870207EA07600202082607E10
:1042400000F00F0009287FD201E0CAE131E1DFE888
:1042500000F07B0525FAF9F8F7F6F5002D4800780F
:1042600000F00100C8B103206076402029490870A1
:104270000020208226480088002808DD08460078B3
:1042800040F00200087022480088FFF710FB002071
:104290002C49088000F048FD61E1E1E21D4800780A
:1042A00000F0010088B1164890F82F0000F03F00A0
:1042B00012280AD1124890F82E0000F0F000502881
:1042C00078DD0020014908708BE0BDE0B8000020D7
:1042D0008C1200201C1900207463703A20666F75E0
:1042E0006E64206E6F20756E7573656420636F6EEB
:1042F0006E656374696F6E732E000000A800002065
:1043000088020020AE000020B9000020BA00002082
:10431000A0000020A40000207463703A20676F742E
:104320002072657365742C2061626F7274696E67A8
:1043300020636F6E6E656374696F6E2E00000000FF
:10434000B4000020A2000020DCE1FE4800783630F6
:10435000FD49085CFD4908700846007800B94BE04B
:10436000FA480078012805D1F6480078401CF54944
:10437000087036E0F5480078022821D1F14800782D
:104380003730F149085C04281AD1EE4800783930FA
:10439000095CEC4800783830EB4A105C41EA0020B8
:1043A000EB4908800846008840F6CA71884202DD61
:1043B000084602E021E0E64800886082A0821BE017
:1043C000E04800783730E049085C00B914E0DD4887
:1043D00000783730DC49085CDA4909780844D94963
:1043E0000870D94890F82E000521C1EB2010D5495E
:1043F0000978B1EB800FA8DB00BF03206076D248BC
:1044000000E024E290F826002072CF4890F82710B0
:10441000617290F82810A17290F82910E1720120C1
:10442000FFF745FA4220CB49087000202082CA4994
:104430000880CA49088000F077FC90E0F3E056E17C
:1044400056E131E1FCE009E02020C249087000F0AB
:104450006BFC0020C2490968487637E4BA4890F8F6
:104460002F0000F0010048B3607E00F0100028BB70
:10447000208A00B1F4E1B8490988491C88B2FFF7E5
:1044800016FAB448007840F01000B2490870B248FB
:104490000088002804DD0846007840F0020008701B
:1044A00000F042FC01202082082060760020E076A7
:1044B00000BF1121A44880F82F102AE1A24890F8EB
:1044C0002F0000F02000B8B19F4890F8351090F808
:1044D000340041EA0020A34909680844A149086062
:1044E000994890F8351090F8340041EA00209A4934
:1044F0000988081A984908809748008800280DDD27
:10450000607E00F0100048B99248007840F0020048
:104510009049087090480088FFF7C9F98A4890F8D8
:10452000311090F8300001EB002089490880A08A02
:104530000988884202DB8648008810B9A08A84492D
:1045400008808348008860828248007800F0030079
:10455000F0B300208149088000F0E6FB00BF7D48F1
:10456000007800F0200040B100207C49088060768F
:104570001421754880F82F10CBE07648007800F0C1
:10458000100068B1002075490880012020820420B5
:1045900060760020E07611216B4880F82F10B8E09B
:1045A0006E480088002819DD6A48007800F0010094
:1045B00008B100202082208A68B9608A674909888A
:1045C000884202DA608A654908806448008800E011
:1045D00028E0208202E0208A604908800020E076FE
:1045E00000BF614800685F4908605C480088002897
:1045F0000BDD208A002808DD208A283056490880F3
:104600001821514880F82F1087E05248007800F0B8
:10461000020038B128205049088010214A4880F80B
:104620002F107AE01CE14B48007800F0010030B117
:104630000020607610204749087000F075FB61E0AB
:1046400045480088002803DD43480088FFF72FF91C
:104650003D4890F82F0000F00100A8B13D480078D7
:1046600000F0010028B1072060760020A0762082AB
:1046700001E0062060760120FFF719F91020354986
:10468000087000F051FB3FE03248007800F0010074
:1046900020B10520607600202082E1E02E480088CD
:1046A000002800DD30E0DBE02B480088002803DD37
:1046B00029480088FFF7FBF8234890F82F0000F006
:1046C000010070B1072060760020A0760120FFF77E
:1046D000EEF810201F4900E07CE0087000F024FB99
:1046E00012E01D480088002800DD0DE0B8E00BE076
:1046F0001848007800F0010018B10720607600200B
:10470000A07600BF00BFABE010210F4880F82F104B
:1047100000BF28201049088000BF50210A4880F8B7
:104720002E1000BF217A084880F82A10617A80F89C
:104730002B10A17A80F82C10E17A80F82D10217BC3
:1047400014E00000B800002088020020B90000201A
:10475000BA000020A4000020A0000020A200002039
:10476000A8000020980000209C00002080F826105F
:10477000617B80F82710A17B80F82810E17B80F80E
:1047800029100621C175A1884184E188818400BF78
:1047900040480188404841833E4841883E488183E3
:1047A00000BF00BF2188C1836188018400BF607E93
:1047B00000F0100030B10021374880F8311080F847
:1047C000301006E00F21344880F83010CA2180F8FC
:1047D000311000BF402130488175304800880112F7
:1047E0002D4801742D4801782B484174002180F830
:1047F000351080F834104186FEF76AFFC04381B25D
:104800002548418645202449887300212248C173E8
:104810004175017522480088401C214908800846DE
:10482000008801121C4881741D4801781A48C1741F
:1048300000210183FEF71BFFC04381B216480183AC
:104840001848C08B401C81B21648C18300BF154870
:104850008088401C1349888000201349087070BD6F
:1048600000200E4908801049087000BFF7E770B5B6
:1048700004460D46002D0CDD0C490D800C480068E7
:10488000844206D00846028821460948006800F0A4
:1048900073FC70BD8400002088020020A00000206E
:1048A000AC0000201C190020A4000020A200002061
:1048B0009C0000200020F34908700DE0F1480078CA
:1048C00000EB4000F04901EB800000210160ED4861
:1048D0000078401CEB490870EA4800780828EDDBB6
:1048E0007047EA490978491CE84A11700021E54AF5
:1048F000117017E0E349097801EB4101E24A02EB4C
:10490000810001884288114339B1817ADF4A1278E7
:10491000511A782901DB00210160DA490978491C24
:10492000D84A1170D74909780829E3DB704710B5D8
:1049300002460023D34C23701FE0D24B1B7803EBBD
:104940004303D14C04EB830003888BB143887BB1D4
:1049500013880488A3420BD153884488A34207D10B
:104960000B6843608B880381C84B1B78837210BD32
:10497000C44B1B785B1CC34C2370C24B1B78082BA9
:10498000DBDB0023BF4C237010E0BE4B1B7803EB36
:104990004303BD4C04EB8300038813B9438803B978
:1049A00008E0B84B1B785B1CB64C2370B54B1B78EA
:1049B000082BEADB00BFB34B1B78082B34D1002354
:1049C000B34C2370B34C2370AE4C23701DE0AD4B41
:1049D0001B7803EB4303AC4C04EB8300837AAB4CB2
:1049E0002478E31AAA4C2478A34209DD837AA74CE1
:1049F0002478E31AA64C2370A24B1B78A54C237095
:104A0000A04B1B785B1C9F4C23709E4B1B78082B84
:104A1000DDDBA04B1B789B4C237023461B7803EBFC
:104A20004303994C04EB8300136803600B684360F5
:104A30008B880381954B1B78837200BF97E710B575
:104A4000954800882A2803D200209349088010BD89
:104A50000020914908809148808AB0F5807F03D07A
:104A6000B0F5007F54D141E08C48C08C8C49098856
:104A700088423AD18948008D89494988884234D191
:104A800086491631881DFFF752FF4FF400708349A5
:104A900088820846D1F816200262498B81848149B8
:104AA0000A68C0F81620898841837E490A68C0F8E0
:104AB00006208988418101460A6A0260898C8180CA
:104AC000808B7649C8840846C18B0185744800886C
:104AD00072498883724841887048C1834FF4C1602D
:104AE0006E4988812A206C49088011E06B48C08C8F
:104AF0006B49098888420AD16848008D684949880D
:104B0000884204D165491631881DFFF710FF00BFA8
:104B100000BF00BF9BE710B56048C08B62490988A1
:104B200088420CD15D48008C5F494988884206D193
:104B30005A485E490A6802608988818091E0574836
:104B4000C08B5B490988084055490988584A128832
:104B5000114088420BD15148008C55494988084082
:104B60004F494988524A52881140884208D000BFB4
:104B700050480088504908804E484088488008E0E6
:104B800000BF4648C08B4C4908804448008C488090
:104B900000BF00203B49087016E03A48007800EB5F
:104BA0004000394901EB800443480088218888424D
:104BB00005D1414840886188884200D108E03148E9
:104BC0000078401C2F4908702E4800780828E4DB44
:104BD00000BF2C48007808283ED1FF2206212F482C
:104BE00000F00FFB2D480021016281842D490A68E5
:104BF000C0F80620898841812A490A68C0F8162031
:104C00008988418300BF2C4800882449C8842A48E9
:104C100041882248018500BF00BF214800881F4904
:104C200088831F4841881D48C18300BF4FF48070AE
:104C30001A498882C88108200882062088740420C6
:104C4000C8744FF4C160888101F136001B490860C7
:104C50002A201149088010BD10486168016021892F
:104C600081800E480F490A68C0F806208988418172
:104C700008200A498881084800880E3006490880C3
:104C800000BFE8E7C000002048190020C200002053
:104C9000C3000020C1000020A000002088020020E6
:104CA0008400002090000020B2560008AC56000896
:104CB0008C00002088000020BC000020980000200C
:104CC00001480068704700005000002070B50025C2
:104CD0001148FCF7E7F80546002405E00E48005DA2
:104CE0000E490855601CC4B2062CF7DB40F2764131
:104CF0001420FCF7B8F8284670BD10B5084940F2FA
:104D0000EE50FCF7D2F980B210BD10B50449054849
:104D10000088FCF783F910BDB6560008900000200B
:104D200088020020A000002010B51148006880888B
:104D3000B0F5A04F04D0A0F53040043810B900E021
:104D400001E000E000BF00BF09480068C088A0F58E
:104D5000F040053810B900F063F800E000BF00BF74
:104D600010BD10B50446214602A000F05FF910BD49
:104D7000A8000020754950206C6F673A25730D0A12
:104D80000000000010B58348006800F11C040021F9
:104D90000420FBF791FDA068002803DDD4E90101A0
:104DA000FFF765FD10BD10B57A48006800F11C04DE
:104DB00001210420FBF780FD0020A06010BD10B58C
:104DC0007448006800F11C0401207349087073A046
:104DD000FFF7C7FF00202070A06010BD10B50020B5
:104DE0007449086004206C49087073A0FFF7B9FF8C
:104DF00010BD10B500206F49091D086002206649EA
:104E0000087073A0FFF7ADFF10BD10B50320624915
:104E1000087000206749086073A0FFF7A2FF10BD6B
:104E200070B55C48006800F11C057548007800F01A
:104E3000200008B1FFF7E9FF7148007800F080001A
:104E400008B1FFF7D6FF6E48007800F0100008B1F7
:104E5000FFF7C4FF6A48007800F0400008B1FFF790
:104E6000AEFF6748007800F0010008B1FFF79BFF34
:104E70006348007800F00200E8B16248007800F072
:104E8000400038BB60480088152803DD00205F49DA
:104E900009684875002405E05C480068005D5C49CD
:104EA0000855641C152CF7DB5648007840F040008C
:104EB000544908700EE05348007800F0200048B1D3
:104EC000544868603820A8604E48007820F02000E0
:104ED0004C4908704A48007800F0040020B948485E
:104EE000007800F0080020B1FFF74CFF00204A498D
:104EF000086070BD38B5FEF7F5FB00BF4AF6C0008C
:104F0000ADF8000041F20100ADF8020000BF00BFA3
:104F1000BDF8000041490880BDF80200488000BF8C
:104F200000BF4AF6C000ADF8000040F20110ADF835
:104F3000020000BF00BFBDF8000039490880BDF87D
:104F40000200488000BF00BF4FF6FF70ADF80000C0
:104F5000FF20ADF8020000BF00BFBDF800003149DE
:104F60000880BDF80200488000BF00BF4AF6C000BC
:104F7000ADF800004CF20100ADF8020000BF4FF4A4
:104F8000AF60FEF762FB044621466846FEF7D8FB99
:104F900038BD0000A8000020C60000207463705FC8
:104FA000636C69656E7420636F6E6E6563746564AF
:104FB000210D0A00AC0122427463705F636C696565
:104FC0006E7420636C6F736564210D0A000000002D
:104FD0007463705F636C69656E742074696D656F6E
:104FE0007574210D0A0000007463705F636C69655D
:104FF0006E742061626F72746564210D0A00000096
:10500000A4000020C4000020A00000209800002080
:105010000C1A0020A81900201C0000208400002089
:10502000880000208C000020704700000FB4044965
:1050300010B503AA029800F05FF910BC5DF814FBEC
:10504000640000202DE9F0410E4604460020206255
:105050002046E168884730B3252805D0D4E90121EE
:105060009047206A401CF2E7E16820460027884705
:10507000050018D0A5F14100192802D820354FF4B9
:1050800000673246294620462760FBF78BF840B17F
:10509000012804D0F61D26F007060836D8E7361D8D
:1050A000D6E72846DAE7206ABDE8F08170B50C46FD
:1050B0000546012A05D02878800600D5EA69002334
:1050C00002E0012305E05B1C934202D2E05C002871
:1050D000F9D1A869E618C01AA861286A184428629C
:1050E0002846AFF3008004E0D5E9012114F8010B54
:1050F0009047B442F8D32846AFF3008070BD00005B
:105100002DE9F0410646002410687529314616A5A0
:1051100010D0AFF30080002802DA404213A507E068
:1051200031688A0701D512A502E0490704D511A507
:10513000012401E0AFF3008000210A2206F12407D8
:1051400009E0B0FBF2FCB0FBF2F302FB1C003030D4
:1051500078541846491C0028F3D123462A46304685
:10516000BDE8F04100F059B8000000002D0000003B
:105170002B00000020000000032A40F2308010F0D5
:10518000030C00F0158011F8013BBCF1020F6244E2
:1051900098BF11F801CB00F8013B38BF11F8013B73
:1051A000A2F1040298BF00F801CB38BF00F8013B20
:1051B00011F0030300F0B280083AC0F0088051F803
:1051C000043B083A51F804CBA0E80810F5E7121D9B
:1051D0005CBF51F8043B40F8043BAFF30080D207BA
:1051E00024BF11F8013B11F801CB48BF11F8012B86
:1051F00024BF00F8013B00F801CB48BF00F8012BA9
:10520000704702F0FF0343EA032242EA024200F041
:10521000B9B870477047704770472DE9F0470D46A1
:1052200099469246044600F124080168880604D590
:10523000E06921F01001216000E00120A84201DDB9
:10524000471B00E00027A1697A1902EB0900081A40
:10525000A0612078C00602D42046AFF3008000266B
:1052600008E0D4E901211AF806009047206A401CA2
:10527000761C20624E45F4DB2078C0060AD5204615
:10528000AFF3008006E0D4E9012130209047206A86
:10529000401C2062381EA7F10107F4DC07E0D4E9C6
:1052A000012118F805009047206A401C2062281E42
:1052B000A5F10105F3DC2046AFF30080207800065D
:1052C00002D50220BDE8F0870120FBE710B5436955
:1052D00013B1AFF3008001E0FFF7E8FE012010BD3D
:1052E000127800F124010A7000224A700122EDE7D1
:1052F00011684FF0FF32E9E7074B70B50D467B446C
:1053000000F065F80446284600F074F810B14FF03C
:10531000FF3070BD204670BDF5C1FFFF10B5203ACB
:10532000C0F00B80B1E81850203AA0E81850B1E85E
:105330001850A0E81850BFF4F5AF5FEA027C24BF14
:10534000B1E81850A0E8185044BF18C918C0BDE80B
:1053500010405FEA827C24BF51F8043B40F8043BD4
:1053600008BF7047D20728BF31F8023B48BF11F889
:10537000012B28BF20F8023B48BF00F8012B7047E3
:105380004FF000020429C0F0128010F0030C00F06E
:105390003780CCF1040CBCF1020F18BF00F8012BD0
:1053A000A8BF20F8022BA1EB0C0100F029B85FEA9E
:1053B000C17C24BF00F8012B00F8012B48BF00F886
:1053C000012B704701694A1C02610878704700B5DB
:1053D0008FB0CDE901310021059105497944CDE92E
:1053E000031011466846FFF72DFE0FB000BD000008
:1053F000E5FFFFFF007B00F0800070474FF00002E8
:1054000000B5134694469646203922BFA0E80C50BA
:10541000A0E80C50B1F12001BFF4F7AF090728BF95
:10542000A0E80C5048BF0CC05DF804EB890028BF11
:1054300040F8042B08BF704748BF20F8022B11F03A
:10544000804F18BF00F8012B7047754600F028F810
:10545000AE4605006946534620F00700854618B061
:1054600020B5FCF7BFF9BDE820404FF000064FF033
:1054700000074FF000084FF0000B21F00701AC4689
:10548000ACE8C009ACE8C009ACE8C009ACE8C009A8
:105490008D4670470446AFF300802046FAF797FE2A
:1054A00000487047241A002000C1814001C080419B
:1054B00001C0804100C1814001C0804100C18140E4
:1054C00000C1814001C0804101C0804100C18140D4
:1054D00000C1814001C0804100C1814001C08041C4
:1054E00001C0804100C1814001C0804100C18140B4
:1054F00000C1814001C0804100C1814001C08041A4
:1055000001C0804100C1814000C1814001C0804193
:1055100001C0804100C1814001C0804100C1814083
:1055200000C1814001C0804101C0804100C1814073
:1055300000C1814001C0804100C1814001C0804163
:1055400001C0804100C1814000C1814001C0804153
:1055500001C0804100C1814001C0804100C1814043
:1055600000C1814001C0804100C1814001C0804133
:1055700001C0804100C1814001C0804100C1814023
:1055800000C1814001C0804101C0804100C1814013
:1055900000C1814001C0804100C1814001C0804103
:1055A00001C0804100C1814000C0C101C30302C2EB
:1055B000C60607C705C5C404CC0C0DCD0FCFCE0E53
:1055C0000ACACB0BC90908C8D81819D91BDBDA1AC3
:1055D0001EDEDF1FDD1D1CDC14D4D515D71716D633
:1055E000D21213D311D1D010F03031F133F3F232A3
:1055F00036F6F737F53534F43CFCFD3DFF3F3EFE13
:10560000FA3A3BFB39F9F83828E8E929EB2B2AEA82
:10561000EE2E2FEF2DEDEC2CE42425E527E7E626F2
:1056200022E2E323E12120E0A06061A163A3A26262
:1056300066A6A767A56564A46CACAD6DAF6F6EAED2
:10564000AA6A6BAB69A9A86878B8B979BB7B7ABA42
:10565000BE7E7FBF7DBDBC7CB47475B577B7B676B2
:1056600072B2B373B17170B0509091519353529222
:1056700096565797559594549C5C5D9D5F9F9E5E92
:105680005A9A9B5B99595898884849894B8B8A4A02
:105690004E8E8F4F8D4D4C8C448485458747468672
:1056A000824243834181804000000000FFFFFFFFF2
:1056B000FFFFFFFFFFFF54AB78A5C0F8DC560008E2
:1056C00000000020C80000006C010008A45700087A
:1056D000C8000020C01F0000880100080000000171
:1056E00000000000000000000000000000000000BA
:1056F000000100000000000000000000FF000000AA
:105700000000000000000000000000000000000099
:10571000000000000000000000A24A040000000099
:105720000000000001020304060708090000000051
:105730000000000000000000000000000000000069
:105740000000000000000000000000000000010256
:105750000304010203040607080902040608000006
:105760000000000000000000000000000000000039
:105770000000000000000000000000000000000029
:105780000000000000000000000000000000000019
:105790000000000000000000000000000000000009
:0457A0000000000005
:0400000508000131BD
:00000001FF
